:100000000C942D070C944A070C944A070C944A0749
:100010000C944A070C944A070C944A070C944D0917
:100020000C944A070C944A070C944A070C94430911
:100030000C944A070C944A070C944A070C944A07FC
:100040000C944A070C944A070C944A070C944A07EC
:100050000C944A070C944A070C944A070C944A07DC
:100060000C94B81A0C944A076E616E00696E6600B3
:1000700000407A10F35A00A0724E18090010A5D45F
:10008000E80000E87648170000E40B54020000CABC
:100090009A3B000000E1F505000080969800000002
:1000A00040420F000000A086010000001027000061
:1000B0000000E803000000006400000000000A00E7
:1000C000000000000100000000002C76D888DC67EA
:1000D0004F0823DFC1DFAE59E1B1B796E5E3E45342
:1000E000C63AE651997696E8E6C28426EB898C9B5F
:1000F00062ED407C6FFCEFBC9C9F40F2BAA56FA5FF
:10010000F490055A2AF75C936B6CF9676DC11BFC80
:10011000E0E40D47FEF520E6B500D0ED902E03009B
:10012000943577050080841E080000204E0A0000E8
:1001300000C80C333333330F986E12831141EF8DA7
:100140002114893BE65516CFFEE6DB18D1844B38E7
:100150001BF77C1D901DA4BBE424203284725E2218
:100160008100C9F124ECA1E53D274E414E494E499D
:100170005459494E46CDCCCC3D0AD7233C17B7D174
:100180003877CC2B329595E6241FB14F0A0000201A
:10019000410000C84200401C4620BCBE4CCA1B0E99
:1001A0005AAEC59D742A43414E43454C2A0A000865
:1001B000200800496E76616C696420696E70757400
:1001C0002064657465637465642E20436F6D6D6192
:1001D0006E642061626F727465642E0A003E2000B6
:1001E0004368616E6E656C3D25640A004C657665FA
:1001F0006C3A20256400256C75204D487A004C43EC
:100200004420466F756E642028616464723D3078C6
:100210002558290A005A4C504C4C205265762034FF
:100220002E34410028432932303038202D203230FE
:100230003232205761796E65204B6E6F776C657333
:10024000205A4C32424B432C2032303233202D2066
:10025000323032352053696D6F6E204561746F7591
:100260006768205A4C324252470A005A4C504C4C54
:10027000204C6F63616C204F7363696C6C61746FA9
:10028000722052657620342E34410A004F4B000A0A
:10029000204C4F434B204641494C3A20436F756EEA
:1002A00074203D25750A000A2A52454620464149D8
:1002B0004C2A20523D2575000A2A4D5558204641AA
:1002C000494C2A2054434E54202575213D3132306B
:1002D000000A414446353335352054657374004671
:1002E0006163746F72792044656661756C74732004
:1002F0004C6F616465640A004D61676963206E75C7
:100300006D6265722025640A002A2A556E6B6E6F35
:10031000776E20436F6D6D616E643A2025730A001D
:1003200064656661756C74007465737400646961FA
:1003300067006164630068656C700073686F7700C4
:1003400073617665006368616E6E656C00556E69F9
:100350006D706C656D656E7465640A0070617261C4
:100360006D00726469760073746570006D756C74ED
:1003700069706C696572006D6F6465006C657665A7
:100380006C006932635F6164647200726566206F3D
:100390007574206F662072616E67650A007265660B
:1003A000006672657100743200743100676170001C
:1003B0007370656564007465787400637700636FBB
:1003C0006E66696700736C65657000646562756769
:1003D000002573203D2025640A0020204348414E1B
:1003E000203D2025640A00202052454620203D2043
:1003F00025640A002020504C4C20203D2025640A12
:1004000000202049324320203D2025640A00524527
:1004100046004348414E00504C4C00493243004393
:1004200068616E6E656C202564206F7574206F6640
:100430002072616E67650A00206D73673D23256435
:100440000043572C2052464F4E0043572C20524613
:100450004B4559004C4F2C2052464F4E004C4F2CD0
:100460002052464F464600206D6F64653D2564204E
:1004700028002532643A2020204672657120256CC0
:100480007520206C6576656C3D25640043572053CC
:10049000706565643D25642057504D20204761708C
:1004A0003D25642054313D25646D732054323D2533
:1004B000646D730A00435720546578743D004932D7
:1004C0004320416464723A20202020203078253077
:1004D00032580A0A00436F6E6669673A202020206E
:1004E0002020206D746C643D25642C206373723D64
:1004F00025642C206763643D25642C20737075721D
:100500003D25640A00436F6E6669673A202020200B
:1005100020202063703D25642C20626C6565643D5D
:1005200025640A0052656620467265713A20256C82
:1005300075204D487A0A004C6576656C3A2020207B
:100540002020202025640A004672657175656E635F
:10055000793A2020256C7500517569740A002020B5
:10056000204A2F4B203D20504C4C20467265712074
:1005700061646A757374202866736B29202053297F
:100580007765657020746573740A00202020546FAD
:1005900067676C6520285029756C6C75702C202855
:1005A00051297569740A00536574204D75786F750B
:1005B000743D2020542C204E2C20522C20302C20F6
:1005C000312C20412C20440A005A4C504C4C2054D1
:1005D000657374204D6F64650A00457869740A007C
:1005E000546573742025643A20556E6C6F636B7389
:1005F0003D256420204C6F636B4D61783D25640A76
:1006000000556E6C636B202B25640A00556E6C637D
:100610006B202D25640A0054657374205374617235
:1006200074696E670A002020726567252D32643D6B
:100630002030782530386C78002020524449563DCF
:1006400025642C20494E543D25642C2046524143BC
:100650003D25642C204D4F443D25640A00467265BB
:1006600071204572726F723A202020252B2E32663F
:1006700020487A0A005220467265713A20202020D4
:100680002020202531322E33660A00504C4C204663
:100690007265713A20202020202531322E33660ADF
:1006A00000524620467265713A20202020202025E5
:1006B0006C750A0055736167653A20636F6E6669F1
:1006C00067202063707C737075727C6D746C647CC1
:1006D000646F75626C65727C70666420203C766124
:1006E0006C3E0A00626C65656400637372006D7431
:1006F0006C6400737075720063700052616E6765A0
:10070000204572726F720A0048616C74696E6720CE
:100710004D6963726F2E2E2E2E0A000A4F4B0A006F
:100720000A0D546578743A200064656661756C74CE
:100730000909202020526573657420636F6E666915
:100740006775726174696F6E20746F20646566618D
:10075000756C740A0073686F772020202020202099
:1007600020202020202020446973706C6179206350
:10077000757272656E7420636F6E6669670A0069D0
:1007800032635F61646472202020202020202020BA
:10079000205365742049324320536C617665206193
:1007A0006464726573730A00696E69742020202086
:1007B0002020202020202020202052656C6F6164A2
:1007C00020504C4C2053657475700A007465737426
:1007D0002020202020202020202020202020456EA6
:1007E0007465722052462054657374206D6F646581
:1007F0000A006465627567202320232020202020C2
:1008000020202020446973706C61792064656275D2
:100810006767696E6720696E666F726D6174696F74
:100820006E0A00646961672020202020202020209B
:100830002020202020446973706C617920504C4C3A
:10084000206461746120666F72206368616E6E65FA
:100850006C0A0072656620232E232320202020208E
:1008600020205265666572656E63652066726571EB
:1008700075656E6379202D2045787465726E616CA4
:100880000A00636F6E66696720706172616D202374
:1008900020202020536574757020504C4C205061EE
:1008A00072616D65746572730A006C6576656C20A3
:1008B0002320202020202020202020205365742069
:1008C0005246204C6576656C2028303D30666620A7
:1008D000746F20343D48696768290A006672657143
:1008E00020232E2323232020202020202020536576
:1008F00074205246206672657175656E63790A00D0
:1009000073617665202320202020202020202020B5
:10091000202053617665206368616E6E656C0A0005
:100920006368616E6E656C202320202020202020CB
:1009300020204C6F6164206368616E6E656C206678
:100940006F72207265636F6E666967757261746934
:100950006F6E0A0063772074657874202020202051
:10096000202020202020557064617465204357208A
:100970006D65737361676520746578740A006377C9
:1009800020737065656420232020202020202020F3
:1009900053657420746865204357205370656564FF
:1009A00020696E2057504D0A00436F6D6D616E6473
:1009B00020202020202020202020204465736372E6
:1009C000697074696F6E0A00202020202532643A15
:1009D00020253464004144432056616C7565733AA8
:1009E0000A005245465F45585445524E414C0A0054
:1009F0005245465F494E5445524E414C0A005350B1
:100A0000495F3353746174650A005350495F496EFE
:100A100069740A007365745F6672657128256C7568
:100A2000290A000096F03C000000000001000000D0
:100A30000000000000000000004E3D4700000000E4
:100A40000100000000000000000000000000B7F3FB
:100A50004500000000010000000000000000000050
:100A600000000051634B0000000001000000000086
:100A7000000000000000000022393B0000000001DF
:100A8000000000000000000000000000009461462B
:100A90000000000001000000000000000000000055
:100AA0000000567921000000000100000000000055
:100AB0000000000000000050CC3D000000000100DC
:100AC00000000000000000000000000050CC3D00CD
:100AD0000000000100000000000000000000000015
:100AE0000050CC3D000000000100000000000000AC
:100AF00000000000000050CC3D000000000100009C
:100B0000000000000000000000000050CC3D00008C
:100B100000000100000000000000000000000000D4
:100B200050CC3D000000000100000000000000006B
:100B3000000000000050CC3D00000000010000005B
:100B40000000000000000000000050CC3D0000004C
:100B50000001000000000000000000000000000094
:100B60000000000000000000000000000000000085
:100B700000000046534B2064697361626C6520730A
:100B800069676D612D64656C74610A004144463586
:100B900033353520506F77657220446F776E0A00C9
:100BA00056434F5F42414E445F4449563D25642CB5
:100BB0002054494D454F55543D25642C20414C430C
:100BC0005F544D4F3D25642C2053594E54485F547B
:100BD0004D4F3D25640A004144435F434C4B5F4405
:100BE00049563D25640A002A2A494E54202564208E
:100BF000546F6F204C6F7720666F72207072657330
:100C000063616C65720A004B434F4E53543D256C33
:100C1000752020494E543D25752C204652414331C4
:100C20003D256C782C2046524143323D256C782C72
:100C3000204D4F44323D25640A004144463533354A
:100C40003520467265713D256C752C2056434F202A
:100C5000467265713D256C752C207066643D256C6F
:100C6000752C207265663D256C752C2052444956C2
:100C70003D25642C2076636F5F6D756C743D256433
:100C80002C206F75747075745F6469763D256420DF
:100C90000A00504C4C5F57726974652830782530D3
:100CA000386C78290A002A49324342453D253032C2
:100CB000580A00493243696E74723A2054575352AD
:100CC0003D253032580A00000000150000000010D9
:100CD000101015101010001818181D181818001CE6
:100CE0001C1C1D1C1C1C001E1E1E1E1E1E1E001F6A
:100CF0001F1F1F1F1F1F004C6576656C3A2025645F
:100D0000002532643A2025362E3366204D487A007D
:100D1000526563616C6C203E0053617665203E0035
:100D20004D756C7469706C696572203E004C657617
:100D3000656C203E0025362E3366204D487A0046ED
:100D400072657175656E6379203E004C6576656CE1
:100D50003A2025640025362E3366204D487A00253A
:100D6000382E33660025303464002530345800496D
:100D70003243204661696C3D253032580A002025F7
:100D800030325800202072657370206C656E3D25EE
:100D9000643A003E25303258003E25303258004932
:100DA00032435F4D474D494E495428736869667414
:100DB0003D25642C206F66667365743D25640A00CA
:100DC0004932435F5345545F52464348414E28667B
:100DD0007265713D252E33662C206D756C743D2532
:100DE000642C206C65763D2564290A004932435FF6
:100DF0005345545F52464348414E282578290A00FE
:100E00004932435F524541445F5246434F4E464943
:100E1000470A004932435F524541445F53544154AD
:100E200055530A004932435F4745545F485752457E
:100E3000560A0020253032580049324320286C657C
:100E40006E3D2564293A004932432067656E2028AB
:100E50006C656E3D2564293A000011241FBECFEF5A
:100E6000D8E0DEBFCDBF11E0A0E0B1E0E8EDF2E6F2
:100E700002C005900D92A238B107D9F723E0A2E88D
:100E8000B1E001C01D92AE38B207E1F70E948C2795
:100E90000C946A310C9400002E9A2FEF80E792E0B8
:100EA000215080409040E1F700C00000A8950895CF
:100EB0002E982FEF80E792E0215080409040E1F79C
:100EC00000C00000A8952FEF80E792E021508040FD
:100ED0009040E1F700C000000895239A259A229AD5
:100EE0002A9881E58CBD08958EBD0DB407FEFDCF17
:100EF0008EB50895CF93DF93EC010E943F31AB0193
:100F0000BC014F5F5F4F6F4F7F4FCE010E945D313D
:100F1000DF91CF91089590EC883009F090E49093A0
:100F20007C0096E890937A0090917C008F71892BD9
:100F300080937C0080917A00806480937A00809115
:100F40007A0084FFFCCF80917A00806180937A00E0
:100F50008091780090917900089586B180958F7086
:100F6000089560918803709189038AE090E00E945F
:100F7000DD2E0895362F272F632F722F0E9472299E
:100F8000AC01832F922F4115510509F40895342F98
:100F9000252FF2CFCF93DF93382FFB0120915F02F3
:100FA0008BEF820F8E3208F02CE0C0913F02D0917F
:100FB0004002CE0165E070E00E947229CB018C0FE7
:100FC0009D1F622F70E00E9472297093320260931D
:100FD000310230933502F0934502E0934402F093DE
:100FE0003B02E0933A02411101C045E08091C60105
:100FF00081FF0CC0469FC001479F900D1124909324
:10100000640180936301DF91CF91089590E080E0C7
:10101000F6CF80913502813061F020F0823079F096
:1010200080E2089580913A0290913B020E9437310C
:101030000895E0913A02F0913B0284910895E09185
:101040003A02F0913B02808108950E9409088E3790
:10105000C9F081110CC08091440290914502909397
:101060003B0280933A020E940908882369F020918C
:101070003A0230913B022F5F3F4F30933B02209367
:101080003A0208958FE5089580E20895823061F074
:1010900018F4813031F00895833049F0843069F0DC
:1010A00008952F9A5F9A08952F985F9808956091F8
:1010B000C40181E00E94F213089560E080E0FACF5D
:1010C0008823B1F080916002882359F083E00E9468
:1010D000460881E080934A02809160028093330247
:1010E000089583E00E94460881E00E944608089522
:1010F00080916102882349F082E00E94460884E0E2
:1011000080934A0280916102E9CF82E00E94460802
:1011100084E0EBCF109232021092310210926401FF
:10112000109263010E946008089548E150E070E069
:1011300060E08DE492E00E94453108950F931F9383
:10114000CF93DF938B01D82FC92F109248021092B2
:101150006401109263011092330280918401843003
:1011600080F09F93DF931F936F9384E19AE09F93A6
:101170008F930E940D2F0F900F900F900F900F9054
:101180000F9080918401853040F08AE09AE09F932F
:101190008F930E940D2F0F900F900E946D07B80142
:1011A0008D2F9C2F0E942A2C20E030E040EF51E44C
:1011B0000E947D2B87FF48C00E94CE171CBC23983D
:1011C000259822982B982D982A9880918401853013
:1011D00040F08EEF99E09F938F930E940D2F0F9018
:1011E0000F90809184019091C6019130E1F482309A
:1011F00040F080EF99E09F938F930E940D2F0F9006
:101200000F90109234022F985A9A5B9A10926401B0
:10121000109263011092320210923102DF91CF914D
:101220001F910F910895823040F082EE99E09F93D4
:101230008F930E940D2F0F900F9081E080933402C6
:101240002F9A5A985B98E2CFB8018D2F9C2F0E945D
:10125000301444E164E670E080E00E94CA078091A7
:10126000C60181FD09C05F9A109248021092640184
:1012700010926301109233028FE99FE00197F1F71A
:1012800000C00000CBCF1F920F920FB60F92112417
:101290000F900FBE0F901F9018951F920F920FB6D0
:1012A0000F9211242F933F934F935F936F937F93EC
:1012B0008F939F93AF93BF93EF93FF9380914602D9
:1012C0009091470201979093470280934602892BA1
:1012D00069F480913F02909140029093470280937D
:1012E0004602809149028F5F8093490280912F02CC
:1012F000909130020097E9F001979093300280932B
:101300002F02892BB1F48091410280FF30C02F9AC7
:101310008091410286958093410280913F02909195
:101320004002969587959695879590933002809385
:101330002F02809133028823E1F0815080933302A1
:10134000811117C080914A020E944608FF91EF91D7
:10135000BF91AF919F918F917F916F915F914F91CD
:101360003F912F910F900FBE0F901F9018952F98BF
:10137000CFCF8091630190916401009739F3019779
:101380009093640180936301892B01F78091480257
:101390008F5F80934802DACF99B1892F807295FFD1
:1013A00003C02E9A5E9A08952E985E9808950F9322
:1013B0001F93CF93DF9385ED99E09F938F930E94C6
:1013C0000D2F0F900F90D0E0C0E008EC19E08C2FAB
:1013D0000E948B079F938F93DF93CF931F930F935D
:1013E0000E940D2F0F900F900F900F900F900F9065
:1013F000CE0183709927039741F46091880370911F
:1014000089038AE090E00E94DD2E2196C031D1054B
:10141000F1F6DF91CF911F910F9108956093BB0179
:101420007093BC018093BD019093BE01089589EA39
:1014300099E09F938F930E940D2F8EE799E09F93E1
:101440008F930E940D2F84E599E09F938F930E94C4
:101450000D2F80E299E09F938F930E940D2F80E0E3
:1014600099E09F938F930E940D2F8CED98E09F93AE
:101470008F930E940D2F8AEA98E09F938F930E948A
:101480000D2F82E898E09F938F930E940D2F83E5A4
:1014900098E09F938F930E940D2F83E298E09F9393
:1014A0008F930E940D2F82EF97E09F938F930E945E
:1014B0000D2F8CEC97E09F938F930E940D2F88EA5D
:1014C00097E09F938F930E940D2F8FE797E09F9354
:1014D0008F930E940D2F85E597E09F938F930E9435
:1014E0000D2F89E297E09F938F930E940D2F8DB768
:1014F0009EB780960FB6F8949EBF0FBE8DBF08951D
:10150000EF92FF920F931F93CF9304E610E0892B85
:1015100011F008EC10E080E297E09F938F930E9417
:101520000D2F780181E6E80EF11C0F900F9080914D
:101530008603909187030E94A12EC82F882329F04B
:101540000E151F0511F0CA3091F460E0C8010E9429
:101550004F318BE197E09F938F930E940D2F0F9057
:101560000F90CF911F910F91FF90EF900895CD3084
:1015700061F38FE98C0F8A3108F4C0526C2FC801D7
:101580000E944F3160918803709189038C2F90E005
:101590000E94DD2E0F5F1F4FCACF88E097E09F9318
:1015A0008F930E940D2FA89514BE0FB6F894A8959E
:1015B00080916000886180936000109260000FBE8F
:1015C000F89483B7817F846083BF15B814B818B8C6
:1015D00017B81BB81AB814BC15BC10928000109232
:1015E00081001092B0001092B10080E880936100F9
:1015F00088E08093610083B7816083BF0F900F9074
:1016000083B7816083BF889583B78E7F83BF6091E6
:101610008803709189038AE290E00E94DD2EF0CF6A
:101620009C01255031092D32310528F480935F0249
:101630000E94950808958BEF96E09F938F930E94E8
:101640000D2F0F900F9008950F931F93CF938B0141
:10165000833009F046C0FB01848195810E94522DA0
:10166000C62FF8010281138168EF76E0C8010E945D
:10167000632E892B31F4CF70C0935D020E949508D0
:1016800038C063EF76E0C8010E94632E892B39F4DD
:1016900080915E02C0FB81F980935E02EFCF6EEE17
:1016A00076E0C8010E94632E892B29F480915E02A6
:1016B000C0FB80F9F1CF6AEE76E0C8010E94632E8C
:1016C000892B29F480915E02C0FB83F9E5CF64EE9B
:1016D00076E0C8010E94632E892B19F4C0935B0247
:1016E000CDCF84EB96E09F938F930E940D2F0F90A8
:1016F0000F90CF911F910F910895EF92FF920F934A
:101700001F93CF93DF938091BE018F938091BD0192
:101710008F938091BC018F938091BB018F9381EA5D
:1017200096E09F938F930E940D2F8091D3018F930A
:101730008091D2018F938091D1018F938091D001BC
:101740008F938BE896E09F938F930E940D2F80914B
:1017500022028F93809121028F93809120028F9398
:1017600080911F028F9385E796E09F938F930E944D
:101770000D2F609123027091240280912502909197
:1017800026020E942A2C20E034E244E759E40E9419
:10179000E12C9F938F937F936F938DE596E09F93BA
:1017A0008F930E940D2F8091D7018F938091D60146
:1017B0008F938091DC018F938091DB018F938091D7
:1017C000DA018F938091D9018F938091D5018F9306
:1017D0008091D4018F938091D8011F928F9389E3D8
:1017E00096E09F938F930E940D2F8DB79EB784969E
:1017F0000FB6F8949EBF0FBE8DBF0E94B1070FEDCC
:1018000011E0D0E0C0E086E2E82E86E0F82EF80194
:1018100080819181228133810C5F1F4F3F932F93F1
:101820009F938F93DF93CF93FF92EF920E940D2FA0
:10183000EDB7FEB738960FB6F894FEBF0FBEEDBFFA
:10184000C0FF08C060918803709189038AE090E02E
:101850000E94DD2E2196CD30D105C9F66091880316
:10186000709189038AE090E00E94DD2ECDB7DEB74B
:10187000E6E00C94F22ACF93DF93D82FC0E0CD138B
:1018800004C08C2FDF91CF9108950E94CC09811163
:10189000F8CF87EC90E00197F1F700C00000CF5F30
:1018A000EECF815008F40895EFECF7E03197F1F7AF
:1018B00000C00000F6CFB0E0A0E0E1E6FCE00C9450
:1018C000CD2A809180008093800080918100866085
:1018D0008093810086E00E94AA172F9887E196E006
:1018E0009F938F930E940D2F0F900F90F12CE12C5E
:1018F00010E000E08CE0882E86E0982E91E0C92E62
:1019000096E0D92E20EEA22E25E0B22E0E947E2156
:10191000682E882369F08AED95E09F938F930E944B
:101920000D2F0F900F90CDB7DEB7EFE00C94E92AA2
:101930008FEFE81AF80AD0E0C0E0662777276C1B23
:101940007D0B8AE090E00E94F31784E60E943B0C36
:10195000782E94E689130AC0DF93CF939F928F92DB
:101960000E940D2F0F900F900F900F9010928500F6
:1019700010928400872D0E94510C0E94CC0988236C
:1019800031F08091840090918500892B11F00F5FD8
:101990001F4FBE0184E690E00E94F31784E60E9488
:1019A0003B0C582E872D751408F4852D681608F405
:1019B000682E84E658120AC0DF93CF93DF92CF924D
:1019C0000E940D2F0F900F900F900F901092850096
:1019D00010928400852D0E94510C0E94CC0988230E
:1019E00031F08091840090918500892B11F00F5F78
:1019F0001F4FA8952196C436D10509F09ECF1F929E
:101A00006F921F930F93FF92EF92BF92AF920E943B
:101A10000D2F8DB79EB708960FB6F8949EBF0FBED8
:101A20008DBF0115110509F471CF2F9A6FCF1F9348
:101A3000CF93DF9389EC95E09F938F930E940D2FB6
:101A400087EA95E09F938F930E940D2F8BE895E096
:101A50009F938F930E940D2F8EE595E09F938F9318
:101A60000E940D2F55985D9A8DB79EB708960FB6B8
:101A7000F8949EBF0FBE8DBFD0E0C0E010E20E9480
:101A80007E218823C1F080918603909187030E9474
:101A9000A12E8F779FE9980F9A3108F480528B34EA
:101AA000D9F1C4F48134E9F154F48033E1F18133A4
:101AB00031F781E022C0A8950E94CC09E0CF8434A0
:101AC000D9F08A34E1F62197BE018AE090E00E94C5
:101AD000F317D5CF8135A1F044F48E3441F1803530
:101AE00071F68BB181278BB9CACF8335B9F0ECF091
:101AF000843529F680E001C086E00E94AA17BFCF96
:101B000088E595E09F938F930E940D2F0F900F9083
:101B1000DF91CF911F9108952196D6CF0E945B0C43
:101B2000AECF85E0EACF82E0E8CF83E0E6CF84E085
:101B3000E4CFA5E1B0E0EFE9FDE00C94CA2A809182
:101B4000BE018F938091BD018F938091BC018F93D3
:101B50008091BB018F9388E495E09F938F930E94BF
:101B60000D2F0E94B1078091C4011F928F9387E3CC
:101B700095E09F938F930E940D2F809156028F9333
:101B8000809155028F93809154028F9380915302DC
:101B90008F9384E295E09F938F930E940D2F809105
:101BA0005B021F928F9380915D021F928F9385E05D
:101BB00095E09F938F930E940D2F80915E028695F2
:101BC00081701F928F9380915E0282FB882780F93B
:101BD0001F928F9380915E0283FB882780F91F926A
:101BE0008F9380915E0281701F928F9385ED94E0B8
:101BF0009F938F930E940D2F0FB6F894DEBF0FBEF8
:101C0000CDBF809164021F928F938EEB94E09F93DF
:101C10008F930E940D2FA89585EB94E00E94AF2131
:101C200084E690E00E9437310F900F900F900F9054
:101C300005E610E0811194C00E94B1078091610215
:101C40001F928F93809160021F928F938091620206
:101C50001F928F9380915F021F928F938CE894E084
:101C60009F938F930E940D2F0E94B107A8950FB6E6
:101C7000F894DEBF0FBECDBFE12C82E0F82E10E05D
:101C800000E097E6292E94E0392E24E5422E24E048
:101C9000522E3DE5632E34E0732E4AE4C42E44E018
:101CA000D42E51E4A52E54E0B52E68E3862E64E0D0
:101CB000962E45E150E0B701CE0101960E942731F2
:101CC0008A851F928F938C818F938B818F938A81CA
:101CD0008F9389818F931F930F9382E794E09F9353
:101CE0008F930E940D2F8C851F928F933F922F927E
:101CF0000E940D2F0FB6F894DEBF0FBECDBF8C85AE
:101D0000813009F441C0C8F1823009F440C0833009
:101D100009F440C0609188037091890389E290E0E2
:101D20000E94DD2E8C8581FF0BC08D851F928F93C5
:101D30009F928F920E940D2F0F900F900F900F90F7
:101D40000E94B107A8950F5F1F4F95E1E90EF11CA6
:101D50000031110509F0ADCF6596E2E10C94E62A59
:101D600070E060E00E948E2178019FEFE91AF90A85
:101D7000C8010E94373187015DCF7F926F920E9428
:101D80000D2F0F900F90C6CF5F924F92F8CFDF923A
:101D9000CF92F5CFBF92AF92F2CF25E1289FB0014D
:101DA000299F700D11247E5F45E150E08BEB91E09F
:101DB0000E9427318091C301811103C081E080938B
:101DC000C3010895CF93DF930E942508D5E08B359A
:101DD00081F5D15081F10E942508C82F82EA8C0F2D
:101DE0008230F8F4CE35D9F4C4E086B18470C817D7
:101DF00031F00E9425088B3511F08D35D1F780ED3B
:101E00008C0F883048F480E00E9460082C2F20530B
:101E1000330BC9010E94CD0E0E942508D8CFC0E027
:101E2000E4CFC03311F44198EACFC13341F7419A6E
:101E3000E6CF8D3589F3EEE0F1E030E020E090E090
:101E40004081042E000C550B4817590749F4220F06
:101E5000331FF901E25FFE4F8181DF91CF91089539
:101E60002F5F3F4F32962A32310551F781E0F5CF8F
:101E7000CF938091BB019091BC01A091BD01B09125
:101E8000BE01892B8A2B8B2B89F080914B028823F2
:101E900079F08091310290913202909364018093A5
:101EA000630110924B0280E00E946008CF91089578
:101EB000C0916201C130D1F0809131029091320223
:101EC000C0FF05C09C01220F331F820F931F909308
:101ED00064018093630181E080934B020E9460085B
:101EE00080916201869580936201E0CF0E94E20EAC
:101EF000809362018130A1F48091620290E00796A4
:101F00004091310250913202849F9001859F300DA3
:101F1000949F300D11243093640120936301C6CF48
:101F20008B3F80F081700E94600880913F02909109
:101F30004002909364018093630110924B02C0931E
:101F40006201B4CF8091620290E00296D9CF9C01E9
:101F50008031910570F485E1829FB001839F700DFF
:101F600011247E5F45E150E08BEB91E00E9445310A
:101F700008959F938F938FE194E09F938F930E9496
:101F80000D2F0F900F900F900F9008950F931F93A8
:101F9000CF93DF93EB010A811B816BE174E0C801F1
:101FA0000E94632E892B09F44EC067E174E0C801DA
:101FB0000E94632E892B09F461C062E174E0C801BC
:101FC0000E94632E892B09F45CC06EE074E0C801A6
:101FD0000E94632E03E811E0892BB9F180918501FD
:101FE0001F928F9381E094E09F938F930E940D2F17
:101FF000809184011F928F9384EF93E09F938F933E
:102000000E940D2F809183011F928F9387EE93E0A2
:102010009F938F930E940D2F809182011F928F9327
:102020008AED93E09F938F930E940D2F8DB79EB7FB
:1020300040960FB6F8949EBF0FBE8DBFDF91CF9133
:102040001F910F91089505E811E08C819D810E94F8
:10205000522DF80160831F926F938B818F938A8139
:102060008F9381ED93E09F938F930E940D2F0F909C
:102070000F900F900F900F900F90E0CF04E811E0B9
:10208000E4CF02E811E0E1CF1F93CF93DF93FC018F
:10209000D0E0C0E060E070E0CB011191111106C00A
:1020A000C53050F1DF91CF911F9108951E3221F478
:1020B000D1111EC0D1E0F1CF20ED210F2A30C0F4A4
:1020C000AAE0B0E09B01AC010E94C729212F110FAB
:1020D000330B20533109032E000C440B550B620FB8
:1020E000731F841F951FDD23C1F2CF5FC630A8F296
:1020F00060E070E0CB01D6CFAAE0B0E09B01AC017C
:102100000E94C729CF5FCCCF48E150E070E060E08B
:102110008DE492E00E94273180914E028F9380914E
:102120004D028F9388EF92E09F938F930E940D2F23
:102130000F900F900F900F9080914D0290914E0252
:1021400082309044B1F182E090E490934E0280930B
:102150004D0280E492E4AFE0B0E0809353029093AC
:102160005402A0935502B093560280E280935C0221
:1021700083E080935D0284E180935B0280915E0244
:102180008160897F877F80935E028CE080935F020D
:102190001092600285E080936102109262028FEDDE
:1021A00092E09F938F930E940D2F0E9495080F90AD
:1021B0000F900895CF93DF9381ED92E09F938F93DB
:1021C0000E940D2F549855985D9A82E00E94AA179C
:1021D000809180008093800080918100876080934F
:1021E000810010928500109284000E944C070F908D
:1021F0000F90C8E7D0E082E00E94AA1781E00E9419
:10220000AA172197C1F70E945807809184009091E6
:102210008500C0E08837910571F09F938F9388EB1C
:1022200092E09F938F930E940D2F2F9A0F900F9003
:102230000F900F90C1E0109285001092840083E00F
:102240000E94AA170E944C078091840090918500FB
:10225000C29790F480918400909185009F938F9312
:1022600087EA92E09F938F930E940D2FCF5F2F9A62
:102270000F900F900F900F900E94580786E00E94D9
:10228000AA1710928500109284008FEC97E00197B6
:10229000F1F700C00000D9B10E944C070E94580716
:1022A0008091840090918500009711F4D5FD13C0B2
:1022B0009F938F938FE892E09F938F930E940D2FAF
:1022C0002F9A0F900F900F900F902F9A0E945807FF
:1022D0000E9458070AC0C111F8CF8CE892E09F9382
:1022E0008F930E940D2F0F900F9060918803709133
:1022F00089038AE090E00E94DD2E10926F000E9418
:10230000CC09DF91CF9108958823B9F01092B200E3
:10231000282F30E050E040E064E87EE180E090E08B
:102320000E94A8292093B30082E08093B00097E038
:102330009093B1008093700008951092B1001092B4
:10234000B3001092700008950E94CC090895A5E191
:10235000B0E0EDEAF1E10C94D82A00E012E0B80117
:102360006D5D774F45E150E0CE0101960E945A2EF7
:1023700045E150E0B801CE0101960E9445310B5E67
:102380001F4F003583E0180751F76596E4E00C9481
:10239000F42AA5E1B0E0EFECF1E10C94CA2AFC01CB
:1023A000019620812032B9F0CE010196212C6C01DA
:1023B000208121112CC0A22DB0E0AA0FBB1FAC0DB3
:1023C000BD1D822D8A3009F046C0211023C06596BC
:1023D000E2E10C94E62AFC0131971082E0CFDC01A7
:1023E000ED93FD93CD012394BF01FB01DB014D91E2
:1023F0009D014423E9F2403241F4FB012081203267
:10240000B9F6FB011192BF01F8CFB901EECF2AE076
:102410002212E5CF0B811C81C8010E94522D362E5D
:102420007D8BC8010E944E2D2B013C01EB80FC806E
:10243000C7010E9444104B015C0109811A816BECB9
:1024400073E0C8010E94632E892B49F4B601822DE6
:102450000E94C60FBCCFED93FD938F5FB3CF65ECA9
:1024600073E0C8010E94632E892B11F40E94CD0AEB
:102470006EEB73E0C8010E94632E892B89F4B601CC
:10248000822D0E94240BF8946091BB017091BC01D5
:102490008091BD019091BE010E949E08789497CFD3
:1024A00081E0281609F40EC16BEB73E0C8010E94AD
:1024B000632E892BE9F566EB73E0C7010E94632E5A
:1024C000892B29F490E080E00E94800A80CF8D81E2
:1024D0009E810E94522DD62EC72E60EB73E0C7015D
:1024E0000E94632E892B29F48D2D9C2D0E94100BA8
:1024F0006ECF6CEA73E0C7010E94632E892B19F43A
:10250000D092620264CF69EA73E0C7010E94632E31
:10251000892B19F4D09260025ACF66EA73E0C701A2
:102520000E94632E892B09F0CDC0D09261024FCF5B
:1025300061EA73E0C8010E94632E892B49F48092FE
:10254000BB019092BC01A092BD01B092BE019BCF95
:102550006DE973E0C8010E94632E892B71F58092AA
:10256000530290925402A0925502B0925602A0E2F9
:102570008A1AA1EA9A0AA7E0AA0AB108B1E68B165C
:10258000B5EF9B06B0E9AB06B104A0F08BE893E091
:102590009F938F930E940D2F80E492E4AFE0B0E010
:1025A0008093530290935402A0935502B093560225
:1025B0000F900F900E94950866CF62E873E0C80103
:1025C0000E94632E892B19F430926402F3CF6CE7DA
:1025D00073E0C8010E94632E892B29F4832D837038
:1025E0008093C40150CF67E773E0C8010E94632E57
:1025F000892B99F4832D83708093C60120913F022B
:102600003091400245E0429FC001439F900D11244C
:10261000909364018093630136CFE32CFD886CE6D0
:1026200073E0C8010E94632E892B41F4E114F10488
:1026300011F4332433943092C50125CF67E673E05B
:10264000C8010E94632E892B69F4C301B2010E9464
:10265000FB2B6093BF017093C0018093C1019093E5
:10266000C20111CF62E673E0C8010E94632E892B7C
:1026700019F43092C30107CF6CE573E0C8010E94E2
:10268000632E892B49F48DE493E09F938F930E94EE
:102690000D2F0F900F90F7CE65E473E0C8010E94F4
:1026A000632E892B21F4C7010E94CD0EECCE60E48D
:1026B00073E0C8010E94632E892B21F4C7010E9498
:1026C000A70F85CE6BE373E0C8010E94632E892BB0
:1026D00019F40E94990D7BCE66E373E0C8010E9455
:1026E000632E892B21F0F80180818F3319F40E9429
:1026F000170A6DCE62E373E0C8010E94632E892B36
:1027000019F40E94D70963CE6DE273E0C8010E94FC
:10271000632E892B19F40E947D0B59CE68E273E079
:10272000C8010E94632E892B19F40E94170D4FCE09
:1027300060E273E0C8010E94632E892B19F40E94A5
:10274000A711A1CE1F930F9389E093E09F938F93DE
:102750000E940D2F0F900F900F900F9038CEFF9288
:102760000F931F93CF93DF93C62FCF70CD3040F0E0
:1027700080E48093C600CDB7DEB7E5E00C94F32A81
:10278000F92E082F172FD62F2A98892F0E94740709
:10279000802F0E947407812F0E9474078D2F0E9442
:1027A00074072A9A84E0C89FF0011124E053FE4F79
:1027B000D787108B018BF28A2A988091840185300B
:1027C000D0F2FF920F931F93DF9382E99CE09F93D7
:1027D0008F930E940D2F0F900F900F900F900F90DE
:1027E0000F90C9CFCF92DF92EF92FF920F931F937A
:1027F000C090F701D090F801E090F901F090FA0153
:102800009FE8C922970186011460882361F08091B6
:102810002C02882321F097018601006414608091C6
:102820002D0281111B7F062E000C770B880B990B54
:1028300044E0660F771F881F991F4A95D1F7607390
:10284000772788279927602B712B822B932B0E9447
:10285000AF131F910F91FF90EF90DF90CF900895ED
:10286000A2E2B0E0E6E3F4E10C94CA2A2B013C01B9
:1028700020915302309154024091550250915602DA
:10288000298B3A8B4B8B5C8B41143DEF530633E421
:10289000630634E1730608F024C3DC01CB018058E1
:1028A0009E4FA142BA4080389E4FA142BA4008F4E0
:1028B0001CC3D301CB0180549F4FA041B54080344D
:1028C0009F4FA041B54008F415C3D301CB01805AF6
:1028D0009F47A848B240803A9F47A848B24008F4B2
:1028E0000EC3D301CB01805D9F43A444B140803D22
:1028F0009F43A444B14008F407C3D301CB01885ED1
:102900009F41A24AB109883E9F41A24AB10508F001
:10291000FFC255E05AA380E289A321E02E8B411427
:102920003AEF530637E8630638E2730608F41E8A66
:1029300041E04D8B41145AEF550657E8650658E2C1
:10294000750608F01D8A41148AEF580687E8680664
:1029500088E2780608F4E0C2A301920156954795F3
:10296000379527952D873E874F87588B89899A8978
:10297000AB89BC89880F991FAA1FBB1F811521EE47
:10298000920725EFA20725E0B20708F0D4C2898399
:102990009A83AB83BC8331E03F8B6D857E858F85C9
:1029A000988929813A814B815C810E9486292D83F7
:1029B0003E834F83588769877A878B879C87AD8151
:1029C000BE81BA8FA98F89819A81AB81BC815C015C
:1029D0006D01E12CF12C00E010E020E030E040E05F
:1029E00050E060E071E080E090E00E945D2A288F76
:1029F000232E4A0189859A85AB85BC855C016D01D2
:102A000000E010E0288D322DA40160E070E080E04D
:102A100090E00E94D229332E209365023093660203
:102A200040936702509368026093690270936A0250
:102A300080936B0290936C02832F90E0B0E0A0E053
:102A40008B8F9C8FAD8FBE8FCA01A62F9A01462F08
:102A500050E029873A874B875C87892B8A2B11F4B2
:102A600011E0311010E059A1452F50E058A34F8FCD
:102A700080918401882381F11F9289A18F931F92F5
:102A80009AA19F931F9281E08F93AC89AF93BB89EA
:102A9000BF932A892F9339893F934C814F935B8150
:102AA0005F938A818F9399819F93A889AF93BF8504
:102AB000BF932E852F933D853F937F926F925F92B8
:102AC0004F928AE39CE09F938F930E940D2F0FB645
:102AD000F894DEBF0FBECDBF809184018823C9F179
:102AE00081E08F931F921F921F921F923F925C85ED
:102AF0005F938B858F939A859F93A985AF93BE81B2
:102B0000BF932D812F939F928F922F92388D3F9359
:102B100087E09CE09F938F930E940D2F0FB6F8944F
:102B2000DEBF0FBECDBF898D9A8D479790F48091FF
:102B30008401882371F09E819F93AD81AF9387EECE
:102B40009BE09F938F930E940D2F0F900F900F90FB
:102B50000F90BE81BB1FBB27BB1FBD875A985B98D8
:102B60006CE174E08FEF9FEF0E94AF136BE070E3B6
:102B700081E690E00E94AF1369817A818B819C810C
:102B800020E137E240E050E00E9486292F5F3F4F6E
:102B90004F4F5F4FA2E05695479537952795AA95D9
:102BA000D1F779012FEFE216F10421F018F0EE24AD
:102BB000EA94F12C80918401853060F0FF92EF92CD
:102BC00087ED9BE09F938F930E940D2F0F900F90A6
:102BD0000F900F90B70190E080E0E6E0660F771F5E
:102BE000881F991FEA95D1F76A63806C0E94AF1322
:102BF000809184018530B8F01F928CE08F931F92F2
:102C00008EE18F931F9282E28F931F9289E08F93C0
:102C100080EA9BE09F938F930E940D2F0FB6F8944C
:102C2000DEBF0FBECDBF69EC7CEB88E099E00E946F
:102C3000AF1368E274E08DE290E10E94AF1367EF9A
:102C400070E080E090E1111104C067EE70E080E078
:102C500090E10E94AF1359A1852F90E0B0E0A0E071
:102C60009C01AD0165E1220F331F441F551F6A957A
:102C7000D1F729833A834B835C8380915E028695EA
:102C8000817090E0B0E0A0E07EE1880F991FAA1F5C
:102C9000BB1F7A95D1F740915B02812C912CA12C1E
:102CA00020E2B22E411103C0812C912C540150E03E
:102CB00070E060E01DE0440F551F661F771F1A95F6
:102CC000D1F7842B952BA62BB72BAC01BD01466009
:102CD000756180915E02817090E0B0E0A0E00BE051
:102CE000880F991FAA1FBB1F0A95D1F7482B592B94
:102CF0006A2B7B2B8D89082F10E030E020E08AE0E2
:102D0000000F111F221F331F8A95D1F7F0E4CF2E39
:102D1000D12CE12CF12C41149AEF590697E8690661
:102D200098E2790618F0C12CD12C76018091C4016B
:102D300090E0B0E0A0E0E4E0880F991FAA1FBB1F5D
:102D4000EA95D1F780739927AA27BB27842B952B67
:102D5000A62BB72B802B912BA22BB32B29813A8149
:102D60004B815C81822B932BA42BB52B882999292D
:102D7000AA29BB29BC01CD016C297D298E299F2957
:102D80000E94AF1365E270E080E890E00E94AF130C
:102D90003F89332309F4D9C004E010E020E034E394
:102DA00060915D0270E090E080E04AE0660F771F7E
:102DB000881F991F4A95D1F766277C738827992722
:102DC0006068716C602B712B822B932B0E94AF1368
:102DD00063E070E080E090E00E94AF136B8D7C8D2B
:102DE0008D8D9E8D52E1660F771F881F991F5A9512
:102DF000D1F7626070610E94AF1369857A858B8517
:102E00009C85E4E0660F771F881F991FEA95D1F72C
:102E100061600E94AF1387EE93E00197F1F700C065
:102E200000006D817E818F819885F4E0660F771FA9
:102E3000881F991FFA95D1F7607F8F70992780625C
:102E4000AD850A2F10E030E020E0A4E1000F111F53
:102E5000221F331FAA95D1F7602B712B822B932B46
:102E60000E94AF134092D0015092D1016092D201E2
:102E70007092D3012D813E813093D5012093D401EE
:102E800089859A85AB85BC858093D9019093DA01B9
:102E9000A093DB01B093DC01832D90E09093DE01E1
:102EA0008093DD0180E091E09093D7018093D6017B
:102EB00081E08093D8018E898F5F80932A0281E020
:102EC0000F8C01C0880F0A94EAF780932B029D892A
:102ED00090932C02AE89A0932D02A296E2E10C946D
:102EE000E62A1AA291E099A318CDA1E0AAA3B2E024
:102EF000B9A313CD22E02AA334E039A30ECD43E0D9
:102F00004AA358E059A309CD84E08AA390E1EBCF0E
:102F1000A6E0AAA3B0E4ECCFD301C2010AA004C08A
:102F2000880F991FAA1FBB1F0A94D2F78D879E870F
:102F3000AF87B88B1BCD89899A89AB89BC89898376
:102F40009A83AB83BC831F8A28CD04E010E020E085
:102F500030E326CF0F931F930091EF011091F00102
:102F60002091F1013091F201377C90E0B0E0A0E0D7
:102F7000BC01CD014BE1660F771F881F991F4A9551
:102F8000D1F76627772788279873602B712B822BC0
:102F9000932B0E94AF131F910F910895809184018C
:102FA000833040F08CE89BE09F938F930E940D2F1D
:102FB0000F900F906091F7017091F8018091F901E5
:102FC0009091FA016F70787F74600E94AF136091E6
:102FD000EF017091F0018091F1019091F201606632
:102FE0000E94AF1308954F925F926F927F92BF92AB
:102FF000CF92DF92EF92FF920F931F93CF93DF93C5
:103000008C01EB01B9B060912B0270E090E080E0A0
:103010000E942A2C6B017C01B80190E080E00E94A4
:103020002A2C9B01AC01C701B6010E94E12C6B0167
:103030007C0160912A0270E090E080E00E942A2CDE
:103040009B01AC01C701B6010E94822B0E94FB2BA1
:1030500090E080E00E942A2C6B017C01BE01DD0F14
:10306000880B990B0E942C2C9B01AC01C701B60167
:103070000E94E12C6B017C0160911F027091200283
:1030800080912102909122020E942A2C20E030E5BA
:1030900043EC57E40E94E12C2FEF3FEF4FE75BE456
:1030A0000E94822B9B01AC01C701B6010E94822BBA
:1030B0002B013C010E94F42B6B01770FEE08FF08F7
:1030C000C701B6010E942C2C9B01AC01C301B201C7
:1030D0000E94102B20E030E04AEF55E40E94E12CE2
:1030E0000E94FB2B2B0120E43FE16091D6017091FF
:1030F000D701C9010E9472293093D7012093D601CC
:103100008091DD019091DE01689FE001699FD00D03
:10311000789FD00D1124D093DE01C093DD01009182
:10312000D4011091D5018091D9019091DA01A0913B
:10313000DB01B091DC018C0D9D1DAE1DBF1DC40DCA
:10314000D51DC0342FE1D20728F0C054DF410196CD
:10315000A11DB11DB7FF05C0015011090197A109BB
:10316000BF4F8F3F2FEF9207A207B10530F00F5FDF
:103170001F4F8F5F9F4FAF4FB1096C017D01FF243F
:103180008091EB019091EC01A091ED01B091EE01E5
:10319000B6FD65C080918401833040F083E79BE0F9
:1031A0009F938F930E940D2F0F900F9060910702B5
:1031B000709108028091090290910A026F7D0E942D
:1031C000AF136091FB017091FC018091FD01909122
:1031D000FE016F7E0E94AF136091F7017091F801BC
:1031E0008091F9019091FA01777F0E94AF1360916D
:1031F000EF017091F0018091F1019091F2016F7EE9
:103200000E94AF136091EB017091EC018091ED0190
:103210009091EE0190640E94AF13C114D104E104B7
:10322000F10409F487C0BE0190E080E022E1660F5E
:10323000771F881F991F2A95D1F76260746F81608C
:103240000E94AF1334E0CC0CDD1CEE1CFF1C3A9541
:10325000D1F7C701B60161600E94AF132BC0B5FA68
:10326000BB24B0F861E0B626C114D104E104F10436
:1032700021F4209711F4C1E0D0E0BE0190E080E09D
:10328000E2E1660F771F881F991FEA95D1F7626008
:10329000746F81600E94AF13F4E0CC0CDD1CEE1C57
:1032A000FF1CFA95D1F7C701B60161600E94AF1308
:1032B000BB2041F087EE93E00197F1F700C00000DA
:1032C000BB24B3946091DF017091E0018091E10132
:1032D0009091E201662777278071992730E020E0FE
:1032E00044E0000F111F221F331F4A95D1F7602BB6
:1032F000712B822B932B0B2D10E030E020E055E159
:10330000000F111F221F331F5A95D1F7602B712B0D
:10331000822B932B0E94AF13DF91CF911F910F91BE
:10332000FF90EF90DF90CF90BF907F906F905F9075
:103330004F900895BB24B394209709F09ECF62E08C
:1033400074EF85E090E00E94AF1361E070E080E0F0
:1033500090E082CF3898409A3998419A3A98429AA8
:1033600010928B011092880110928A0110928901AB
:10337000089586B12091890130918A01220F331F6F
:103380008095482F417050E0242B352B30938A01D3
:103390002093890141E02F3F320709F040E0E6B178
:1033A00080918B018F70E695E370F4E08F9FC001F0
:1033B00011248A599E4FE80FF92FF11D80818093C7
:1033C0008B01807390918801941729F140938801B3
:1033D000EFE3FFE13197F1F700C000002F3F3F4FCF
:1033E00039F421E030E0309387012093860108957D
:1033F0002091860130918701213553EC350748F43F
:10340000293C310508F080E4109287011092860172
:10341000089580E8F9CF2F3F3F4F49F7803111F0F1
:10342000803229F4806410928701109286012091E5
:10343000860130918701A90141505109473E5D4FF6
:10344000B0F62F5F3F4FCFCF8093BA0084E08093D8
:10345000BC0010928D01089580918D010895809196
:103460008D01811103C080916501089560918803E9
:103470007091890382E690E00E94DD2EF0CF1F93C9
:10348000CF93DF93D82F192FC62F80918D018111F3
:103490001AC0C0938F019D2FA0E9B1E0ED2FF12F4D
:1034A0008E2F891B8C17C0F010928C0188EF8093AF
:1034B000650185EC8093BC0081E080938D01DF91F4
:1034C000CF911F910895609188037091890383E6DD
:1034D00090E00E94DD2ED9CF81918D93E1CF809134
:1034E0008D0181110BC010928C0188EF80936501D2
:1034F00085EC8093BC0010928D0108956091880343
:103500007091890384E690E00E94DD2EE8CF1F933E
:10351000CF93DF93182FD92FC62F80918D01811162
:1035200016C080918C0180FF21C090918E01A0E98E
:10353000B1E0E12FFD2F80E08C1312C090918C013F
:103540009D7F90938C01DF91CF911F9108956091A1
:1035500088037091890381E690E00E94DD2EDDCF23
:10356000981761F32D9121938F5FE6CF80E0EBCF29
:103570001F920F920FB60F9211242F933F934F93E8
:103580005F936F937F938F939F93AF93BF93EF93CB
:10359000FF93809185018A3070F08091B9001F926D
:1035A0008F9383EB9CE09F938F930E940D2F0F903E
:1035B0000F900F900F908091B900803909F49DC051
:1035C000A0F5803709F489C050F4882369F080366B
:1035D00009F483C08091B900809365012DC08038C3
:1035E00009F48BC08838B1F78091B90080936501E8
:1035F00080E98093BC0080918501853070F08091D6
:1036000065011F928F9386EA9CE09F938F930E949F
:103610000D2F0F900F900F900F9080918C018E7F47
:1036200080938C0110928D0129C0883AC1F140F439
:103630008839D1F2803A71F685EC8093BC00F2CFE4
:10364000803CF1F1883C81F2883B21F680918F012A
:10365000882341F1E0918E01E81720F581E08E0F7B
:1036600080938E01F0E0E057FE4F80818093BB0095
:1036700085EC8093BC0081E080938D01FF91EF91F8
:10368000BF91AF919F918F917F916F915F914F917A
:103690003F912F910F900FBE0F901F901895109291
:1036A0008E01D4CF80918501853040F060918803F0
:1036B000709189038AE290E00E94DD2E8FEFD6CFD1
:1036C00090918E0180918F01981708F483CF80919B
:1036D0008C01816080938C01AFCF8091B90091E023
:1036E000803709F090E080918C0190FB82F9826034
:1036F00080938C0110928E01BBCFE0918E01E83255
:10370000B0F481E08E0F80938E018091BB00F0E0D9
:10371000E057FE4F808380918E01883258F080E020
:1037200090918C01916090938C018568A2CF8091DB
:10373000BB00F1CF80E4F4CF82E08093B9008AE04F
:103740008093B80084E08093BC00089584EA80935D
:10375000BC008091BC0087FFFCCF089584E9809372
:10376000BC0008958093BB0084E88093BC008091E6
:10377000BC0087FFFCCF089584EC8093BC0080914F
:10378000BC0087FFFCCF8091BB00089584E8809344
:10379000BC008091BC0087FFFCCF8091BB000895E6
:1037A0008091B900887F0895CF93C82F0E94A61BEF
:1037B0008091B900887F883071F48C2F0E94B21BF1
:1037C0008091B900887F883131F484E98093BC000E
:1037D00081E0CF91089580E88093BC0080E0F9CF2C
:1037E00020E43FE1AC01429FC001439F900D529FF6
:1037F000900D11240197F1F70895CF93C82F0E94DF
:10380000A61B8091B801880F0E94B21B8C2F0E94CA
:10381000B21B0E94AE1BCF9108950F931F93CF93BD
:10382000DF93D82FC1E0611101C0C0E01D2F107FD0
:103830001C2B012F0860802F0E94B21B812F8C60EF
:103840000E94B21B802F0E94B21B20E1D29FC001B8
:103850001124C82B8C2F8C600E94B21B8C2F886087
:103860000E94B21BDF91CF911F910F910895CF93CA
:10387000DF93C82FD62F0E94A61B8091B801880F16
:103880000E94B21B6D2F8C2F0E940D1C0E94AE1B3C
:10389000DF91CF91089560E081E00E94371C089588
:1038A000CF93DF930E949C1B1092B9011092B80134
:1038B000C0E2D0E08C2F880F0E94D41B882321F017
:1038C000D093B901C093B8012196C832D10591F7C0
:1038D0008091B8019091B901892B09F47FC02FE73D
:1038E00088E391E0215080409040E1F700C0000063
:1038F0000E94A61B8091B801880F0E94B21B80E035
:103900000E94B21B88E30E94B21BC0E8D8E3CE013C
:103910000197F1F78CE30E94B21BCE010197F1F7FA
:1039200088E30E94B21B80E49CE90197F1F788E3E9
:103930000E94B21BCE010197F1F78CE30E94B21BEB
:10394000CE010197F1F788E30E94B21B80E89EE365
:103950000197F1F788E30E94B21BCE010197F1F7BE
:103960008CE30E94B21BCE010197F1F788E30E941D
:10397000B21BCE010197F1F780E20E94B21BCE018B
:103980000197F1F784E20E94B21BCE010197F1F793
:1039900080E20E94B21B2197F1F70E94AE1B60E00B
:1039A00088E20E94371C60E088E00E94371C60E0DB
:1039B00081E00E94371C60E087E00E94371C60E0D5
:1039C0008CE00E94371C60E086E00E94371C0E9459
:1039D0004B1C8091B801DF91CF91089580E0FBCF1F
:1039E0000F931F93CF93DF938C010E94A61B8091AE
:1039F000B801880F0E94B21BE8018991811107C0AC
:103A00000E94AE1BDF91CF911F910F91089561E04D
:103A10000E940D1CF2CF0F931F93CF93DF938C0165
:103A20000E94A61B8091B801880F0E94B21BE8017A
:103A3000FE0184912196811107C00E94AE1BDF9187
:103A4000CF911F910F91089561E00E940D1CF0CF5E
:103A5000611104C080580E94371C0895613019F428
:103A600060E08054F8CF623019F460E08C56F3CFF8
:103A700060E08C52F0CFFF920F931F93CF93DF93B0
:103A8000F42EFF0CFF0CFF0C660F660F660FD0E0E4
:103A9000C0E08C01060F111D8C2F8F0D60E080643B
:103AA0000E94371CF801EC0FFD1F849161E00E9419
:103AB000371C2196C830D10579F7CDB7DEB7E5E0E0
:103AC0000C94F32AB0E0A0E0E8E6FDE10C94D52ADE
:103AD000D42E26E0429FA00111246817790708F42C
:103AE000CB01489F9001499F300D589F300D112404
:103AF000C9010E9472297B01CB0166E070E00E943F
:103B00007229082FC5E0D0E010E01D1105C0CDB727
:103B1000DEB7E7E00C94F12A85E0EC16FD0630F400
:103B2000CE010597E816F90638F0802F61E00E9473
:103B3000371C1F5F2696E9CF80E0F8CFCF93C0E017
:103B40004C2F6C2F87EC9CE00E943B1DCF5FC63052
:103B5000B9F7CF910895FB016381748185819681C6
:103B60000E94FB2B6093BB017093BC018093BD014D
:103B70009093BE010E949E080895A0E1B0E0E3EC9E
:103B8000FDE10C94D82A80918602909187022091C1
:103B900085028E010F5F1F4F243069F52091760258
:103BA0002F93209175022F93209174022F932091CF
:103BB00073022F939F938F931F930F930E94322F23
:103BC0000FB6F894DEBF0FBECDBF60917102809139
:103BD00070020E94281DC8010E94F01C9091700282
:103BE0008091840260917102890F0E94281D609665
:103BF000E4E00C94F42A209174022F932091730234
:103C00002F939F938F931F930F930E94322F0F90A8
:103C10000F900F900F900F900F90D7CFCF92DF9211
:103C2000EF92FF920F931F93CF93C82F7B016A01EE
:103C300089010E944B1CC09385021092700281E0A2
:103C4000809371021092780210927702D0927C02D7
:103C5000C0927B0284E080937202F0927402E09240
:103C6000730210928402C23009F580E090E19093D3
:103C7000800280937F028AE69DE090938702809382
:103C8000860280E1809383020E94BD1D1093890209
:103C90000093880260E08FE00E94371CCF911F9153
:103CA0000F91FF90EF90DF90CF900895C13061F7B2
:103CB00088EE93E09093800280937F0285E69DE0FA
:103CC00090938702809386028AE0DCCFB0E0A0E088
:103CD000ECE6FEE10C94CE2A90E7692E92E0792E74
:103CE00094E0F301958B80836183E782F0860187FE
:103CF0001287A386B486C586D686238334834583FC
:103D0000568388E08283148A80E090E0AAE7B4E4D6
:103D10008787908BA18BB28B8FE59DE0978B868BED
:103D20008AE0838B0E94BD1DF301918E808E60E03E
:103D30008FE00E94371CEEE00C94EA2A8F929F924B
:103D4000AF92BF92CF92DF92EF92FF92CF9390917A
:103D50008502943009F009C1803409F45DC080F413
:103D6000803109F4A3C0803209F4D4C0CF91FF9010
:103D7000EF90DF90CF90BF90AF909F908F9008957D
:103D8000803609F465C0803809F450C0803571F779
:103D9000C0918402809172028150990BC817190654
:103DA0002CF781E08C0F80938402C0907F02D0902A
:103DB0008002E0908102F090820220E030E040E852
:103DC0005FE3C701B6010E947D2B811103C0CE5F66
:103DD000C09384026091830270E090E080E00E94D2
:103DE0002C2C9B01AC01C701B6010E94822B609371
:103DF0007F027093800280938102909382020E94DE
:103E0000BD1DE0918802F0918902309709F4AECF90
:103E100060E772E080E01AC0209184028091720213
:103E20008150990B281719060CF4B2CF60E08CE092
:103E30000E94371C1092BA01E0918802F091890229
:103E400060E772E081E0309709F490CF09958ECF5A
:103E5000C0918402CC2309F489CF8FEF8C0F80931B
:103E600084026091830270E090E080E00E942C2C3C
:103E700020917F0230918002409181025091820214
:103E80000E94E12C60937F027093800280938102F4
:103E90009093820220E030E040E85FE30E947D2BB7
:103EA0008111ADCFC250C0938402A9CFC0907302DC
:103EB000D0907402E0907502F090760280907F02BC
:103EC00090908002A0908102B0908202A50194019E
:103ED00060917B0270917C0280917D0290917E02C4
:103EE0000E94102B9B01AC01C701B6010E947D2BE3
:103EF00018160CF43BCFA5019401C701B6010E942E
:103F0000112B6093730270937402809375029093E7
:103F1000760275CFC0907302D0907402E090750263
:103F2000F090760280907F0290908002A0908102B3
:103F3000B09082022091770230917802409179020C
:103F400050917A02C501B4010E94112B9B01AC0172
:103F5000C701B6010E94DC2C87FD08CFA5019401A2
:103F6000C701B6010E94102BCCCF803409F43FC0AA
:103F7000D8F4803109F45EC0803209F0F7CE809128
:103F800073029091740240917F02509180022091BF
:103F9000770230917802240F351F8217930708F4B7
:103FA000E5CE841B950B5AC0803661F1803809F448
:103FB0003DCF803509F0DACE8091840220917202E3
:103FC0002150330B821713060CF0D0CE8F5F8093F5
:103FD00084026091830270E080917F029091800260
:103FE0000E9472297093800260937F0208CF209113
:103FF0008402809172028150990B281719060CF0E7
:1040000015CFDACF80918402882309F4AFCE815096
:10401000809384024091830220917F02309180023C
:10402000429FC001439F900D112490938002809382
:104030007F02E5CE809173029091740240917F02DD
:104040005091800220917B0230917C02241B350B21
:104050002817390708F48ACE840F951F90937402AD
:1040600080937302CCCE1092BA010895A9E1B0E01A
:10407000ECE3F0E20C94D82A0E944B1C8091BA0128
:10408000823009F46BC068F48823A9F0813009F408
:1040900045C061E080E00E94281D6996E4E00C9430
:1040A000F42A843009F462C008F45DC0853089F7D1
:1040B00080E19DE055C08091BE018F938091BD014C
:1040C0008F938091BC018F938091BB018F9385E585
:1040D0009DE09F938F938E010F5F1F4F1F930F9350
:1040E0000E94322FC8010E94F01C61E080E00E9413
:1040F000281D8091C4011F928F938BE49DE09F93B4
:104100008F931F930F930E94322FC8010E94F01CBF
:104110000FB6F894DEBF0FBECDBFBBCF8FE39DE0DF
:104120000E940B1D61E080E00E94281D8091BE016D
:104130008F938091BD018F938091BC018F9380916B
:10414000BB018F9385E39DE09F938F938E010F5F5B
:104150001F4F1F930F930E94322FD7CF8DE29DE008
:104160000E940B1D96CF80E29DE0FACF89E19DE091
:10417000F7CFA9E1B0E0EFEBF0E20C94D62A60E0D3
:104180008CE00E94371C0E944B1C0BEB11E0F801E5
:1041900083818F9382818F9381818F9380818F938D
:1041A00080913D021F928F9381E09DE09F938F93BA
:1041B000CE0101967C019F938F930E94322FC701FD
:1041C0000E94F01C61E080E00E94281DF8018185BA
:1041D0001F928F9387EF9CE09F938F93FF92EF92B4
:1041E0000E94322FC7010E94F01C0FB6F894DEBF68
:1041F0000FBECDBF6996E6E00C94F22A8F929F9293
:10420000AF92BF92CF92DF92EF92FF920F931F93E4
:10421000803239F1803459F18031C1F480913D020E
:104220008F30A0F48F5F80933D0280913D0290E03B
:104230000E94CD0E6091BB017091BC018091BD01C7
:104240009091BE010E949E080E94B9201F910F917B
:10425000FF90EF90DF90CF90BF90AF909F908F90A6
:10426000089580913D02882389F38150DCCF82E05C
:104270008093BA016091BB017091BC018091BD0136
:104280009091BE010E942A2C9B01AC018BEA882EE2
:104290008DE1982EA12C90E8B92E99E8C92E95E4CD
:1042A000D92EE12CF12C0CEF11E460E084E00E94A7
:1042B000661ECCCF9091BA01911103C00E94FE20DE
:1042C00008950E949E1E08959093C5008093C40097
:1042D00088E18093C10086E08093C20080918503CD
:1042E0008B7F809385038091850381608093850314
:1042F00080918503877F8093850308958091C00016
:10430000881F8827881F08958091C00087FF04C0F8
:104310008091C60090E00895A895F6CF9091C000D6
:1043200095FFFCCF8093C6008A3039F49091C0008D
:1043300095FFFCCF9DE09093C600082E000C990BD2
:104340000895CF93DF93EC018991811103C0DF9130
:10435000CF91089570E060E00E948E21F5CFCF9359
:10436000DF93EC01FE0184912196811103C0DF915E
:10437000CF91089570E060E00E948E21F3CF8823F2
:1043800029F0880F81600E94241A08951092BC00C1
:104390001092BA0008950E946F1A0895CF93C82F03
:1043A00080918501833060F01F92CF938FE69DE06E
:1043B0009F938F930E940D2F0F900F900F900F904F
:1043C0000E946F1A8C2FCF910895A2E3B0E0EBEE1C
:1043D000F1E20C94D12A0E942C1A8111DEC0809146
:1043E0008C0180FF30C281FFD2C068E2CE0101960D
:1043F0000E94871A182F90918C018091850192FF5D
:1044000015C0843060F01F921F9387E49EE09F9355
:104410008F930E940D2F0F900F900F900F90F12C03
:10442000E12C93E3C92E9EE0D92E1DC08430B8F351
:104430001F921F9389E39EE0EACF843088F0E1E089
:10444000F0E0EC0FFD1FEE0DFF1D80811F928F939A
:10445000DF92CF920E940D2F0F900F900F900F9030
:104460002FEFE21AF20A80918501E11630F38430D1
:1044700040F060918803709189038AE090E00E9487
:10448000DD2E112309F483C00981013209F4ADC185
:1044900008F04CC0023009F41DC100F5002309F4F6
:1044A000ACC0013009F4FEC007FF3DC00058809148
:1044B0002902081B002E000C110BB8018091270265
:1044C000909128020E94F31780918501823058F163
:1044D00011271F930F9383E99DE084C0013109F4F4
:1044E00029C1003209F46EC10031F1F680918501D5
:1044F000882369F08A811F928F938CEE9DE09F93B1
:104500008F930E940D2F0F900F900F900F901130EE
:1045100009F407C18A81803108F003C190E00E944C
:10452000CD0E81E089A70E946F1A31C0043209F4D0
:104530006DC1B8F50232B9F3033209F0B5CF1330CB
:1045400090F38A819B819827892798279093280246
:10455000809327022C8120932902309185013323F7
:1045600011F3422F022E000C550B5F932F939F9354
:104570008F938FE99DE09F938F930E940D2F0E9450
:104580006F1A0F900F900F900F900F900F900E9446
:104590002C1A811102C00E946F1AE296EBE00C9473
:1045A000ED2A093209F439C10A3209F4BCCF0832C4
:1045B00009F07ACF0A8180912902081B002E000C95
:1045C000110BB80180912702909128020E94F317E5
:1045D00080918501823008F4A6CF11271F930F9395
:1045E00089E99DE09F938F930E940D2F0E946F1A7F
:1045F0000F900F900F900F90CACF80918501882364
:1046000041F084E29EE09F938F930E940D2F0F90C4
:104610000F9080E189A784E38AA780E38BA794E4C5
:104620009CA71DA693E29EA791E19FA788AB7E0160
:1046300039E2E30EF11C18E080918501853058F1D4
:104640001F921F9384E89DE09F938F930E940D2FEC
:104650009E2C0F900F900F900F9067018EE7A82E61
:104660008DE0B82EF60181916F011F928F93BF925A
:10467000AF920E940D2F8C2D89190F900F900F90E3
:104680000F90811778F360918803709189038AE015
:1046900090E00E94DD2E612FC7010E943F1A011198
:1046A00084C075CF80918501882341F083E19EE02D
:1046B0009F938F930E940D2F0F900F900E94CC0913
:1046C00089A786B58AA700E07E0189E2E80EF11C81
:1046D00012E0B2CF80918501882341F080E09EE016
:1046E0009F938F930E940D2F0F900F906091BB01AD
:1046F0007091BC018091BD019091BE010E942A2C55
:1047000069A77AA78BA79CA78091C5018DA78091E7
:10471000C4018EA700E07E0199E2E90EF11C16E0CB
:104720008BCF82E089A701E07E01E9E2EE0EF11C69
:1047300011E082CF1730A8F38E818A3090F79F81E5
:10474000943078F720918501EA80FB800C811D81EF
:10475000222399F01F929F931F928F931F930F9381
:10476000FF92EF9280EC9DE09F938F930E940D2F1C
:104770000FB6F894DEBF0FBECDBF6E2D7F2D802FFC
:10478000912F0E94FB2B6093BB017093BC0180931F
:10479000BD019093BE018E818093C5018F8180936E
:1047A000C40181E089A70E946F1AF8946091BB014F
:1047B0007091BC018091BD019091BE010E949E0844
:1047C0007894E5CE133008F4AECE8B81182F813269
:1047D00008F010E2EA80F12CF701E657FD4F7F0167
:1047E000882309F4A0CE00E027CF133008F49BCE35
:1047F0001250DE011396EA81F0E0E657FD4F80E0AB
:104800009D9191938F5F8117D8F38DCE8A810E94FD
:104810008A0881E08093C60186CE133008F483CEE7
:104820008A819BEF980F953108F07DCE80935F02CF
:104830006B8182E08093C60170E066577D4F42E055
:104840000E94CA0770CE80916501883F09F4A5CE09
:104850000E94CE21A2CEAFE0B0E0E1E3F4E20C94FE
:10486000CA2A6C011B015A01FC011782168283813E
:1048700081FF48C39E012F5F3F4F4901F60193819D
:10488000F10193FD859193FF81911F01882309F424
:10489000E7C2853239F493FD859193FF81911F0121
:1048A000853239F4B60190E00E94DD2E35015301C6
:1048B000E5CFF12C512C00E0003238F48B3209F1B5
:1048C00090F48032F9F0833209F107FD34C020ED15
:1048D000280F2A3020F506FF1BC0FAE0FF9E200DAE
:1048E0001124F22E05C08D3279F0803371F701600A
:1048F000F10193FD859193FF81911F018111DCCF1F
:104900001AC002600460F4CF0860F2CF0061F0CFFB
:104910003AE0539E200D1124522E0062E9CF8E32D0
:1049200021F406FD9DC20064E3CF8C3611F40068CB
:10493000DFCF8836E9F29BEB980F933008F05FC029
:104940000061805E06FD02C046E0F42E102F1F734A
:10495000853609F05BC0106417FF61C08F2D9BE3A3
:104960009F1508F48BE344244394480E27E0350157
:10497000F4E06F0E711CF501608171818281938179
:10498000042DA4010E94792D5C01F981FC87F0FFC0
:1049900003C00DE2F3FF07C00BE211FD04C0012FBD
:1049A000047012FD00E22C852C70E22E09F457C031
:1049B0000111ABC2F3E0E12CF515A0F483E0E52C86
:1049C000E81A13FD08C0B60180E290E00E94DD2ED7
:1049D000EA94E110F8CF002329F0B601802F90E08F
:1049E0000E94DD2E3C8528E6A22E20E0B22E33FD6B
:1049F00004C09CE6A92E90E0B92E107122C09BE95C
:104A0000980F933008F033C10F7E9CCF863611F497
:104A10001068A2CFFF2009F49FCFFA949DCFE7E062
:104A20002F2DEF1518F427E037E0F32E412C9FCF00
:104A300011118052B60190E00E94DD2E8FEFA81A6E
:104A4000B80AF50184918111F3CFEE2009F42FCF3C
:104A5000B60180E290E00E94DD2EEA94F6CF17FFC7
:104A60006FC04A0CFC85F4FF04C08A81813309F4CD
:104A70004A9414140CF086C028E0241510F488E041
:104A8000482E85E090E017FF06C0C501B7FE02C0C2
:104A900090E080E0019601110196FF2031F02F2D6A
:104AA00030E02F5F3F4F820F931F5816190619F001
:104AB00014F0E52CE81A812F897011F4E11067C019
:104AC000002329F0B601802F90E00E94DD2E13FD17
:104AD00002C0E11063C017FF7CC08501B7FE02C0B1
:104AE00010E000E0C501841991092C016F2D70E0E0
:104AF000EE27FF27E61BF70BFF87EE870F3F100718
:104B000029F4B6018EE290E00E94DD2EA016B106D7
:104B10000CF44BC0401651060CF047C0F501E01BE9
:104B2000F10BE80DF91D8181015011092E853F859A
:104B300002171307E4F1B60190E00E94DD2EDECFEC
:104B400016FD9FCFEF2DF0E0EA15FB0534F03CEFAA
:104B5000A3163FEFB3060CF010683296E80DF91D6E
:104B600001C0FA94FF2019F082918033D1F317FF2E
:104B700088CF442443944F0CFA141B0431F02CF0DA
:104B8000FA187FCF442443947CCFF12C7ACFB6011E
:104B900080E290E00E94DD2EEA9490CFB60180E39F
:104BA00090E00E94DD2EEA9494CF80E3BDCFA01662
:104BB000B10641F49A81963350F4953319F43C854B
:104BC00034FF05C0B60190E00E94DD2E3ECF81E3A8
:104BD000F9CF8A81813319F09C859F7E9C87B6012D
:104BE00090E00E94DD2EFF20A9F0B6018EE290E059
:104BF0000E94DD2EF394F394E2E001E00E0FE80D45
:104C0000F92DF11D8081B60190E00E94DD2EE02F8C
:104C10000F11F3CF85E690E014FF02C085E490E029
:104C2000B6010E94DD2EB7FC06C0A114B104C1F488
:104C3000EC85E4FF15C0B194A194B1088DE2B601F2
:104C400090E00E94DD2E80E32AE0A216B10454F425
:104C5000B60190E00E94DD2EB601C501C096B4CF2A
:104C60008BE2EDCF8F5FFAE0AF1AB108EDCF83365C
:104C7000C9F0833771F1833509F05BC03501F2E08B
:104C80006F0E711CF501A080B1806F2D70E006FDE4
:104C900002C06FEF7FEFC5010E94762E9D878C8743
:104CA00000680DC0350132E0630E711CF501808192
:104CB000898321E030E03D872C8754010F7703FD85
:104CC00006C02C853D855216130609F0A8F4E52C84
:104CD0002BC0350132E0630E711CF501A080B1805C
:104CE0006F2D70E006FD02C06FEF7FEFC5010E94DF
:104CF000812E9D878C87E2CFB60180E290E00E94F2
:104D0000DD2E5A94DECFF50107FD859107FF8191D5
:104D10005F01B60190E00E94DD2EE110EA948C85DF
:104D20009D8501979D878C87EC85FD85EF2B59F735
:104D30008CCE843619F0893609F074C0350107FF2E
:104D400066C0F4E06F0E711CF50160817181828193
:104D50009381102F1F7697FF08C0909580957095CE
:104D600061957F4F8F4F9F4F10682AE030E0A4017C
:104D70000E94552FA82EA818BA2C012F16FF0AC082
:104D80000E7FAF1438F414FF04C012FD02C0012FCF
:104D90000E7EBF2C04FF8EC0FE01EA0DF11D808146
:104DA000803309F080C0097EF02FF870EF2E03FDEC
:104DB00090C000FF8AC0FA2CB51410F4F50CFB1853
:104DC00004FF8DC0B60180E390E00E94DD2E02FF5B
:104DD00009C088E790E001FF02C088E590E0B601D5
:104DE0000E94DD2EAF1408F486C0AA940A2D10E0AC
:104DF0000F5F1F4F080D191DF80182918F01B60139
:104E000090E00E94DD2E80169106B1F71ECEF2E0F2
:104E10006F0E711CF50160817181072E000C880BEB
:104E2000990B97CF102F8537A9F41F7E2AE030E029
:104E3000350117FF2FC0F4E06F0E711CF501608182
:104E4000718182819381A4010E94552FA82EA818F8
:104E50001F7792CF197F8F36D1F048F4883591F0C3
:104E6000F601868197812F96E2E10C94E62A80373D
:104E700039F08837A9F714FD146020E130E0D8CF6D
:104E80001061F9CF04FD166020E132E0D1CF28E0B7
:104E900030E0CECFF2E06F0E711CF50160817181C0
:104EA00090E080E0D0CF02FD02C0B3947DCFB394F8
:104EB000B3947ACF802F867809F476CFF6CFB601F7
:104EC00080E290E00E94DD2EB394B514C0F3E12C93
:104ED00077CFE52CEB18B51408F472CFF8CF802FFC
:104EE000867809F47FCF8BE201FF80E207FD8DE237
:104EF000B60190E075CFB60180E390E00E94DD2E10
:104F0000FA9470CF8FEF9FEFAECF24E0E12C251500
:104F100008F063CD84E053CDA3E3B0E0E2E9F7E22B
:104F20000C94CA2A88E19FE00FB6F894A895809364
:104F300060000FBE90936000A895269A279A569A13
:104F4000579A509A5598539A5B9A529A5A9A88B19E
:104F50008F6088B987B1807F87B98EE991E00E9420
:104F60007A072FE738E381E0215030408040E1F7B5
:104F700000C000001092340284E390E00E9464219B
:104F800080E091E090938703809386039093890358
:104F9000809388038BE692E09F938F930E940D2F5E
:104FA00084E292E09F938F930E940D2F0E946D07E1
:104FB00044E164E670E080E00E94CA071092640158
:104FC000109263011092330210923C02A8950F9048
:104FD0000F900F900F9080913C02882399F085E10B
:104FE00092E00E940B1DA89580913C021F928F9326
:104FF0008EEF91E09F938F930E940D2F0F900F9053
:105000000F900F900E9484100E94AA190E943320D2
:1050100083E08093C4011092430210922E0286B165
:1050200080958F7080933D0290E00E94CD0E10928B
:10503000C6016091BB017091BC018091BD0190914E
:10504000BE010E949E08809164020E94BF21789454
:105050006091BB017091BC018091BD019091BE0136
:105060000E942A2C20E030E040EF51E40E94DC2C2A
:1050700087FF0E94DA1084E690E0909340028093CC
:105080003F029093470280934602109230021092A2
:105090002F020E94841180913D0290E00E94CD0E6B
:1050A0006091BB017091BC018091BD019091BE01E6
:1050B0000E949E08109249021092480280913C0280
:1050C000FE0131967F01882389F10E944B1C80915B
:1050D000BE018F938091BD018F938091BC018F930E
:1050E0008091BB018F9386EF91E09F938F93FF9206
:1050F000EF920E94322FC7010E94F01C61E080E015
:105100000E94281D8091C4011F928F938CEE91E024
:105110009F938F93FF92EF920E94322FC7010E94BC
:10512000F01C0FB6F894DEBF0FBECDBF0E94CB219E
:1051300087019924939480EE282E81E0382E9DEDEE
:10514000492E91E0592E2FEA622E21E0722E5E0147
:1051500032E3A30EB11C35EAC32E31E0D32EA8955D
:1051600085E88A95F1F7000080914802882309F4C8
:1051700041C00E94380F80914802815080934802BC
:1051800080913C02882329F00E94B91981110E9464
:105190005A21992031F05F924F920E940D2F0F906B
:1051A0000F900E94E5210E947E21982E8823B9F25B
:1051B00080918603909187030E94A12E8A3019F076
:1051C0008D3009F063C060918803709189038AE093
:1051D00090E00E94DD2EF80110828701F801919085
:1051E0008F0191103AC0C7010E94C911870199240B
:1051F0009394B5CF80914902882311F20E94CC0983
:105200008091490281508093490286B180958F70C8
:1052100090913D02981709F4B3CF80933D0290918D
:105220008201992351F01F928F933F922F920E94F7
:105230000D2F0F900F900F900F9080913D0290E0F6
:105240000E94CD0E6091BB017091BC018091BD01A7
:105250009091BE010E949E0893CF892D90E00E94FC
:10526000532E892B09F0BACFF0E29F1609F4B6CF7E
:1052700083EB91E09F938F930E940D2F0F900F90DF
:1052800090E080E0E396E2E10C94E62A883011F0A9
:105290008F3769F4E016F10698F4015011097F92F6
:1052A0006F920E940D2F0F900F90912C58CF83304A
:1052B00039F4DF92CF920E940D2F0F900F9096CF6E
:1052C0000A151B0590F74801FFEF8F1A9F0AF80196
:1052D0008083609188037091890390E00E94DD2EA5
:1052E0008401E3CFAA1BBB1B51E107C0AA1FBB1F50
:1052F000A617B70710F0A61BB70B881F991F5A9562
:10530000A9F780959095BC01CD010895A1E21A2ED0
:10531000AA1BBB1BFD010DC0AA1FBB1FEE1FFF1F59
:10532000A217B307E407F50720F0A21BB30BE40BA9
:10533000F50B661F771F881F991F1A9469F76095F0
:105340007095809590959B01AC01BD01CF010895AA
:10535000052E97FB1EF400940E94BF2957FD07D02D
:105360000E94862907FC03D04EF40C94BF29509567
:105370004095309521953F4F4F4F5F4F0895909541
:105380008095709561957F4F8F4F9F4F08950E9434
:10539000012BA59F900DB49F900DA49F800D911D92
:1053A00011240895DF93CF931F930F939A9DF02DAF
:1053B000219FF00D8B9DF00D8A9DE02DF10D039F37
:1053C000F00D029FE00DF11D4E9DE00DF11D5E9D63
:1053D000F00D4F9DF00D7F936F93BF92AF925F934F
:1053E0004F93D5010E94012B8B01AC01D7010E9484
:1053F000012BEB01E80FF91FD6010E94212A2F9102
:105400003F91D6010E94012BC60FD71FE81FF91F3D
:10541000AF91BF910E94212A2F913F910E94012BB1
:10542000C60FD71FE81FF91FD6010E94012BE60FF8
:10543000F71F9801BE01CF010F911F91CF91DF910E
:1054400008950E94012B460F571FC81FD91F08F44B
:1054500031960895689401C0E894F92FF12B12F069
:105460000C945E2AA0E0B0E0E8E3FAE20C94D02AC3
:10547000092E059422F40E94BA2A112392F4F0E82E
:105480000F26FFEFE094F09400951095B094C0942F
:10549000D094A194BF0ACF0ADF0AEF0AFF0A0F0BCC
:1054A0001F0B0E94692A07FC0E94BA2ACDB7DEB7FB
:1054B000ECE00C94EC2A689401C0E8948F929F92DF
:1054C000CF93DF930E94692ADF91CF919F908F90B5
:1054D000089588249924F401E401B0E49F93AA2755
:1054E0009A158B049C04ED05FE05CF05D007A10796
:1054F00098F4AD2FDC2FCF2FFE2FE92D982C892E7D
:10550000982F872F762F652F542F432F322F222746
:10551000B85031F7BF9127C01B2EBF91BB27220F78
:10552000331F441F551F661F771F881F991F881C34
:10553000991CEE1FFF1FCC1FDD1FAA1FBB1F8A1463
:105540009B04EC05FD05CE05DF05A007B10748F07B
:105550008A189B08EC09FD09CE09DF09A00BB10BE5
:1055600021601A94E1F62EF49401AF01BE01CD0141
:10557000000C0895609570958095909530954095B4
:10558000509521953F4F4F4F5F4F6F4F7F4F8F4F3C
:105590009F4F08952F923F924F925F926F927F920A
:1055A0008F929F92AF92BF92CF92DF92EF92FF9233
:1055B0000F931F93CF93DF93CDB7DEB7CA1BDB0BDF
:1055C0000FB6F894DEBF0FBECDBF09942A88398884
:1055D00048885F846E847D848C849B84AA84B9848B
:1055E000C884DF80EE80FD800C811B81AA81B98197
:1055F000CE0FD11D0FB6F894DEBF0FBECDBFED01AB
:105600000895A29FB001B39FC001A39F700D811D9B
:105610001124911DB29F700D811D1124911D0895BB
:105620005058BB27AA270E94282B0C94A22C0E941A
:10563000942C38F00E949B2C20F039F49F3F19F4F1
:1056400026F40C94912C0EF4E095E7FB0C948B2C33
:10565000E92F0E94B32C58F3BA1762077307840727
:10566000950720F079F4A6F50C94D52C0EF4E0956E
:105670000B2EBA2FA02D0B01B90190010C01CA010C
:10568000A0011124FF27591B99F0593F50F4503EB7
:1056900068F11A16F040A22F232F342F4427585FA9
:1056A000F3CF469537952795A795F0405395C9F7C1
:1056B0007EF41F16BA0B620B730B840BBAF0915079
:1056C000A1F0FF0FBB1F661F771F881FC2F70EC018
:1056D000BA0F621F731F841F48F4879577956795EB
:1056E000B795F7959E3F08F0B0CF9395880F08F0D7
:1056F0009927EE0F9795879508950E94672C08F4D7
:1057000081E008950E94962B0C94A22C0E949B2C61
:1057100058F00E94942C40F029F45F3F29F00C943B
:105720008B2C51110C94D62C0C94912C0E94B32CE0
:1057300068F39923B1F3552391F3951B550BBB27C0
:10574000AA2762177307840738F09F5F5F4F220F05
:10575000331F441FAA1FA9F335D00E2E3AF0E0E8FC
:1057600032D091505040E695001CCAF72BD0FE2F46
:1057700029D0660F771F881FBB1F261737074807DA
:10578000AB07B0E809F0BB0B802DBF01FF27935892
:105790005F4F3AF09E3F510578F00C948B2C0C949F
:1057A000D62C5F3FE4F3983ED4F3869577956795C2
:1057B000B795F7959F5FC9F7880F911D96958795C7
:1057C00097F90895E1E0660F771F881FBB1F6217E6
:1057D00073078407BA0720F0621B730B840BBA0BA4
:1057E000EE1F88F7E09508950E94FB2B6894B11195
:1057F0000C94D62C08950E94BB2C88F09F5798F0EB
:10580000B92F9927B751B0F0E1F0660F771F881FC5
:10581000991F1AF0BA95C9F714C0B13091F00E94DF
:10582000D52CB1E008950C94D52C672F782F8827BC
:10583000B85F39F0B93FCCF3869577956795B39506
:10584000D9F73EF490958095709561957F4F8F4F75
:105850009F4F0895E89409C097FB3EF4909580957A
:10586000709561957F4F8F4F9F4F9923A9F0F92F26
:1058700096E9BB279395F695879577956795B795A4
:10588000F111F8CFFAF4BB0F11F460FF1BC06F5F8A
:105890007F4F8F4F9F4F16C0882311F096E911C09C
:1058A000772321F09EE8872F762F05C0662371F0BD
:1058B00096E8862F70E060E02AF09A95660F771FD1
:1058C000881FDAF7880F9695879597F90895990FAD
:1058D0000008550FAA0BE0E8FEEF16161706E807BA
:1058E000F907C0F012161306E407F50798F0621BDB
:1058F000730B840B950B39F40A2661F0232B242BB0
:10590000252B21F408950A2609F4A140A6958FEFCE
:10591000811D811D089597F99F6780E870E060E020
:1059200008959FEF80EC089500240A941616170638
:1059300018060906089500240A9412161306140680
:1059400005060895092E0394000C11F4882352F0E3
:10595000BB0F40F4BF2B11F460FF04C06F5F7F4F9B
:105960008F4F9F4F089557FD9058440F551F59F082
:105970005F3F71F04795880F97FB991F61F09F3F3C
:1059800079F087950895121613061406551FF2CF65
:105990004695F1DF08C0161617061806991FF1CFB5
:1059A00086957105610508940895E894BB276627DC
:1059B0007727CB0197F908950E94672C08F48FEFA1
:1059C00008950E94F42C0C94A22C0E94942C38F080
:1059D0000E949B2C20F0952311F00C948B2C0C949E
:1059E000912C11240C94D62C0E94B32C70F3959F0B
:1059F000C1F3950F50E0551F629FF001729FBB27C6
:105A0000F00DB11D639FAA27F00DB11DAA1F649F61
:105A10006627B00DA11D661F829F2227B00DA11D14
:105A2000621F739FB00DA11D621F839FA00D611D9A
:105A3000221F749F3327A00D611D231F849F600DBB
:105A4000211D822F762F6A2F11249F5750409AF0E4
:105A5000F1F088234AF0EE0FFF1FBB1F661F771F70
:105A6000881F91505040A9F79E3F510580F00C943B
:105A70008B2C0C94D62C5F3FE4F3983ED4F38695A0
:105A800077956795B795F795E7959F5FC1F7FE2BDB
:105A9000880F911D9695879597F908956627772722
:105AA0000C94B32F1F93FC0199278827BC01E8941D
:105AB00011911032E9F3193010F01E30C8F31B3287
:105AC00051F01D3249F4689406C00E948C2E610F7B
:105AD000711D811D911D119110531A30B0F33EF4C8
